:100000000C942A000C943F000C943F000C943F0089
:100010000C943F000C943F000C943F000C943F0064
:100020000C943F000C943F000C943F000C943F0054
:100030000C943F000C943F000C943F000C943F0044
:100040000C943F000C943F000C943F000C943F0034
:100050000C943F0011241FBECFE5D8E0DEBFCDBF1A
:1000600010E0A0E6B0E0E0E7F6E002C005900D92F7
:10007000A638B107D9F70E94B6010C9436030C9448
:1000800000009FEF91BB94B3906C94BB95B39F77A6
:1000900095BB82BB85B3806485BB00C000C00000F7
:1000A00085B38F7B85BB87EA91E60197F1F700C0A6
:1000B000000008958FEF81BB84B3806C84BB87EA16
:1000C00091E60197F1F700C0000080E30E94410033
:1000D00080E30E94410080E30E94410088E30E9487
:1000E00041008EE00E94410086E00E94410081E0D4
:1000F0000E94410008959FEF91BB94B3906C94BB14
:1001000095B3906895BB82BB85B3806485BB00C006
:1001100000C0000085B38F7B85BB89EF90E001971D
:10012000F1F700C000000895CF93DF93EC0103C006
:1001300021960E947B0088818111FACFDF91CF91B7
:10014000089580E987BB87B38F7B87BB80E58DB936
:1001500081E08EB908951FB8779BFECF8FB10895C7
:10016000CF92DF92EF92FF9288B38F7E88BB000020
:100170000E94AB00C82ED12CE12CF12CFC2CEE24DB
:10018000DD24CC240E94AB0090E0A0E0B0E0DC01D4
:1001900099278827C82AD92AEA2AFB2A0E94AB0075
:1001A00090E0A0E0B0E0BA2FA92F982F8827C82AA6
:1001B000D92AEA2AFB2A0E94AB00A7019601282B24
:1001C000CA01B90128B3206128BBFF90EF90DF90EE
:1001D000CF9008950F931F938B019C0107701127F7
:1001E00022273327012B022B032BB9F4052E52E1D2
:1001F00095958795779567955A95D1F7502D75FF09
:1002000003C0706C8F6F9F6F0E94150220E030E07A
:1002100040E85EE30E94790204C060E070E080EC98
:100220009FE71F910F910895DC01CB01689413F8AB
:10023000B595A795979587951694D1F793FF03C029
:10024000906FAF6FBF6FBC01CD017F70882799277A
:100250000E94150220E030E040E85DE30E94790250
:100260000895FC01CB0199233CF42DE22083919564
:100270008195910941503196242F30E0DF01A20F82
:10028000B31F21503109E20FF31F1C9220E030E030
:1002900012C01816190654F46AE070E00E940E03AA
:1002A000805D8083862F972F319703C050E3508362
:1002B00031972F5F3F4F642F70E0261737074CF3BD
:1002C0000895EF92FF920F931F93CF93DF93CDB7D3
:1002D000DEB760970FB6F894DEBF0FBECDBF8C01BE
:1002E0007B0180E80E94410011239CF044E0B801AA
:1002F000CE0101960E94310180E690E00E949400B8
:10030000CE0101960E94940086E690E00E9494003F
:1003100004C089E690E00E94940080EC0E944100B5
:10032000FF209CF044E0B701CE0101960E9431010C
:1003300084E790E00E949400CE0101960E94940010
:1003400086E690E00E94940004C08AE790E00E9454
:10035000940060960FB6F894DEBF0FBECDBFDF915C
:10036000CF911F910F91FF90EF9008950E945A0036
:100370000E94A1000E94B0006B017C010E94EA0073
:100380004B015C01C701B6010E9414010E94DD010E
:100390006B017C01C501B4010E94DD01DC01CB01D0
:1003A000B6010E9461012FE38DE093E0215080406F
:1003B0009040E1F700C00000DDCF0E94E4016894A6
:1003C000B1110C94730208950E94580288F09F574F
:1003D00098F0B92F9927B751B0F0E1F0660F771F69
:1003E000881F991F1AF0BA95C9F714C0B13091F05F
:1003F0000E947202B1E008950C947202672F782F68
:100400008827B85F39F0B93FCCF386957795679523
:10041000B395D9F73EF490958095709561957F4F8F
:100420008F4F9F4F0895E89409C097FB3EF4909535
:100430008095709561957F4F8F4F9F4F9923A9F0BD
:10044000F92F96E9BB279395F6958795779567954C
:10045000B795F111F8CFFAF4BB0F11F460FF1BC090
:100460006F5F7F4F8F4F9F4F16C0882311F096E923
:1004700011C0772321F09EE8872F762F05C06623D1
:1004800071F096E8862F70E060E02AF09A95660F8A
:10049000771F881FDAF7880F9695879597F9089543
:1004A00057FD9058440F551F59F05F3F71F0479525
:1004B000880F97FB991F61F09F3F79F0879508950A
:1004C000121613061406551FF2CF4695F1DF08C029
:1004D000161617061806991FF1CF86957105610546
:1004E00008940895E894BB2766277727CB0197F9EE
:1004F00008950E948C020C94FD020E94EF0238F0D5
:100500000E94F60220F0952311F00C94E6020C9460
:10051000EC0211240C9473020E94500270F3959F18
:10052000C1F3950F50E0551F629FF001729FBB27EA
:10053000F00DB11D639FAA27F00DB11DAA1F649F86
:100540006627B00DA11D661F829F2227B00DA11D39
:10055000621F739FB00DA11D621F839FA00D611DBF
:10056000221F749F3327A00D611D231F849F600DE0
:10057000211D822F762F6A2F11249F5750409AF009
:10058000F1F088234AF0EE0FFF1FBB1F661F771F95
:10059000881F91505040A9F79E3F510580F00C9460
:1005A000E6020C9473025F3FE4F3983ED4F3869521
:1005B00077956795B795F795E7959F5FC1F7FE2B00
:1005C000880F911D9695879597F9089597F99F67DC
:1005D00080E870E060E008959FEF80EC08950024CB
:1005E0000A941616170618060906089500240A9498
:1005F00012161306140605060895092E0394000C1E
:1006000011F4882352F0BB0F40F4BF2B11F460FFAC
:1006100004C06F5F7F4F8F4F9F4F089597FB072E4A
:1006200016F4009407D077FD09D00E94220307FC3E
:1006300005D03EF4909581959F4F089570956195F2
:100640007F4F0895AA1BBB1B51E107C0AA1FBB1F08
:10065000A617B70710F0A61BB70B881F991F5A954E
:10066000A9F780959095BC01CD010895F894FFCF2E
:1006700054656D703A005F430054656D703A457281
:10068000726F7200436F6C643A00436F6C643A455A
:0606900072726F7200009F
:00000001FF
